{
  "contractName": "Casino",
  "abi": [
    {
      "inputs": [],
      "stateMutability": "nonpayable",
      "type": "constructor"
    },
    {
      "anonymous": false,
      "inputs": [
        {
          "indexed": true,
          "internalType": "address",
          "name": "previousOwner",
          "type": "address"
        },
        {
          "indexed": true,
          "internalType": "address",
          "name": "newOwner",
          "type": "address"
        }
      ],
      "name": "OwnershipTransferred",
      "type": "event"
    },
    {
      "inputs": [
        {
          "internalType": "address",
          "name": "",
          "type": "address"
        }
      ],
      "name": "address_Register",
      "outputs": [
        {
          "internalType": "uint256",
          "name": "",
          "type": "uint256"
        }
      ],
      "stateMutability": "view",
      "type": "function",
      "constant": true
    },
    {
      "inputs": [],
      "name": "owner",
      "outputs": [
        {
          "internalType": "address",
          "name": "",
          "type": "address"
        }
      ],
      "stateMutability": "view",
      "type": "function",
      "constant": true
    },
    {
      "inputs": [],
      "name": "renounceOwnership",
      "outputs": [],
      "stateMutability": "nonpayable",
      "type": "function"
    },
    {
      "inputs": [
        {
          "internalType": "address",
          "name": "newOwner",
          "type": "address"
        }
      ],
      "name": "transferOwnership",
      "outputs": [],
      "stateMutability": "nonpayable",
      "type": "function"
    },
    {
      "inputs": [
        {
          "internalType": "uint256",
          "name": "tokens_Number",
          "type": "uint256"
        }
      ],
      "name": "buyTokens",
      "outputs": [
        {
          "internalType": "uint256",
          "name": "",
          "type": "uint256"
        }
      ],
      "stateMutability": "payable",
      "type": "function",
      "payable": true
    },
    {
      "inputs": [
        {
          "internalType": "uint256",
          "name": "tokens",
          "type": "uint256"
        }
      ],
      "name": "withdrawAlltokens",
      "outputs": [],
      "stateMutability": "payable",
      "type": "function",
      "payable": true
    }
  ],
  "bytecode": "0x608060405260c8600060146101000a81548161ffff021916908361ffff160217905550606460015534801561003357600080fd5b5061005061004561005560201b60201c565b61005d60201b60201c565b610121565b600033905090565b60008060009054906101000a900473ffffffffffffffffffffffffffffffffffffffff169050816000806101000a81548173ffffffffffffffffffffffffffffffffffffffff021916908373ffffffffffffffffffffffffffffffffffffffff1602179055508173ffffffffffffffffffffffffffffffffffffffff168173ffffffffffffffffffffffffffffffffffffffff167f8be0079c531659141344cd1fd0a4f28419497f9722a3daafe3b4186f6b6457e060405160405180910390a35050565b610a16806101306000396000f3fe6080604052600436106100555760003560e01c80631f64632e1461005a5780633610724e14610097578063715018a6146100c75780638da5cb5b146100de578063f2fde38b14610109578063f42d147814610132575b600080fd5b34801561006657600080fd5b50610081600480360381019061007c919061060a565b61014e565b60405161008e9190610650565b60405180910390f35b6100b160048036038101906100ac9190610697565b610166565b6040516100be9190610650565b60405180910390f35b3480156100d357600080fd5b506100dc610254565b005b3480156100ea57600080fd5b506100f36102dc565b60405161010091906106d3565b60405180910390f35b34801561011557600080fd5b50610130600480360381019061012b919061060a565b610305565b005b61014c60048036038101906101479190610697565b6103fc565b005b60026020528060005260406000206000915090505481565b60003460015483610177919061074c565b11156101b8576040517f08c379a00000000000000000000000000000000000000000000000000000000081526004016101af90610800565b60405180910390fd5b6000600260003373ffffffffffffffffffffffffffffffffffffffff1673ffffffffffffffffffffffffffffffffffffffff16815260200190815260200160002054905082816102089190610820565b600260003373ffffffffffffffffffffffffffffffffffffffff1673ffffffffffffffffffffffffffffffffffffffff1681526020019081526020016000208190555082915050919050565b61025c6104db565b73ffffffffffffffffffffffffffffffffffffffff1661027a6102dc565b73ffffffffffffffffffffffffffffffffffffffff16146102d0576040517f08c379a00000000000000000000000000000000000000000000000000000000081526004016102c7906108c2565b60405180910390fd5b6102da60006104e3565b565b60008060009054906101000a900473ffffffffffffffffffffffffffffffffffffffff16905090565b61030d6104db565b73ffffffffffffffffffffffffffffffffffffffff1661032b6102dc565b73ffffffffffffffffffffffffffffffffffffffff1614610381576040517f08c379a0000000000000000000000000000000000000000000000000000000008152600401610378906108c2565b60405180910390fd5b600073ffffffffffffffffffffffffffffffffffffffff168173ffffffffffffffffffffffffffffffffffffffff16036103f0576040517f08c379a00000000000000000000000000000000000000000000000000000000081526004016103e790610954565b60405180910390fd5b6103f9816104e3565b50565b6000600260003373ffffffffffffffffffffffffffffffffffffffff1673ffffffffffffffffffffffffffffffffffffffff168152602001908152602001600020540361047e576040517f08c379a0000000000000000000000000000000000000000000000000000000008152600401610475906109c0565b60405180910390fd5b60006001548261048e919061074c565b90503373ffffffffffffffffffffffffffffffffffffffff166108fc829081150290604051600060405180830381858888f193505050501580156104d6573d6000803e3d6000fd5b505050565b600033905090565b60008060009054906101000a900473ffffffffffffffffffffffffffffffffffffffff169050816000806101000a81548173ffffffffffffffffffffffffffffffffffffffff021916908373ffffffffffffffffffffffffffffffffffffffff1602179055508173ffffffffffffffffffffffffffffffffffffffff168173ffffffffffffffffffffffffffffffffffffffff167f8be0079c531659141344cd1fd0a4f28419497f9722a3daafe3b4186f6b6457e060405160405180910390a35050565b600080fd5b600073ffffffffffffffffffffffffffffffffffffffff82169050919050565b60006105d7826105ac565b9050919050565b6105e7816105cc565b81146105f257600080fd5b50565b600081359050610604816105de565b92915050565b6000602082840312156106205761061f6105a7565b5b600061062e848285016105f5565b91505092915050565b6000819050919050565b61064a81610637565b82525050565b60006020820190506106656000830184610641565b92915050565b61067481610637565b811461067f57600080fd5b50565b6000813590506106918161066b565b92915050565b6000602082840312156106ad576106ac6105a7565b5b60006106bb84828501610682565b91505092915050565b6106cd816105cc565b82525050565b60006020820190506106e860008301846106c4565b92915050565b7f4e487b7100000000000000000000000000000000000000000000000000000000600052601260045260246000fd5b7f4e487b7100000000000000000000000000000000000000000000000000000000600052601160045260246000fd5b600061075782610637565b915061076283610637565b925082610772576107716106ee565b5b828204905092915050565b600082825260208201905092915050565b7f4572726f722c20796f75206e65656420746f20706179206d6f726520666f722060008201527f74686520746f6b656e7300000000000000000000000000000000000000000000602082015250565b60006107ea602a8361077d565b91506107f58261078e565b604082019050919050565b60006020820190508181036000830152610819816107dd565b9050919050565b600061082b82610637565b915061083683610637565b9250827fffffffffffffffffffffffffffffffffffffffffffffffffffffffffffffffff0382111561086b5761086a61071d565b5b828201905092915050565b7f4f776e61626c653a2063616c6c6572206973206e6f7420746865206f776e6572600082015250565b60006108ac60208361077d565b91506108b782610876565b602082019050919050565b600060208201905081810360008301526108db8161089f565b9050919050565b7f4f776e61626c653a206e6577206f776e657220697320746865207a65726f206160008201527f6464726573730000000000000000000000000000000000000000000000000000602082015250565b600061093e60268361077d565b9150610949826108e2565b604082019050919050565b6000602082019050818103600083015261096d81610931565b9050919050565b7f4572726f722c20796f75206469646e27742062757920746f6b656e7300000000600082015250565b60006109aa601c8361077d565b91506109b582610974565b602082019050919050565b600060208201905081810360008301526109d98161099d565b905091905056fea264697066735822122053157a234aa0eff4094bf22eb4c076df7a6f0d099e2973b632e27b1e43d0a1a464736f6c634300080e0033",
  "immutableReferences": {},
  "source": "// SPDX-License-Identifier: MIT\r\npragma solidity >=0.4.22 <0.9.0;\r\nimport \"@openzeppelin/contracts/access/Ownable.sol\";\r\n\r\ncontract Casino is Ownable {\r\n  constructor (){\r\n    \r\n  }\r\n\r\n  uint16 royality = 200; //Porcentaje al hacer el withdraw\r\n  uint256 phantom_prize = 100;\r\n  //Acabar de hacer la comprovacion del phantom_prize \r\n\r\n  mapping(address => uint256) public address_Register;\r\n\r\n  function buyTokens (uint256 tokens_Number) public payable returns(uint256) {\r\n    //Comprovar el token number y precio del Phantom es correcto\r\n    require((tokens_Number / phantom_prize) <= msg.value, \"Error, you need to pay more for the tokens\");\r\n    uint256 current_tokens = address_Register[msg.sender];\r\n    address_Register[ msg.sender] = current_tokens + tokens_Number;\r\n    return tokens_Number;\r\n\r\n  }\r\n\r\n  function withdrawAlltokens (uint256 tokens) public payable {\r\n    require( address_Register[msg.sender] != 0 , \"Error, you didn't buy tokens\");\r\n    /* uint256 feeAmount = (tokens * royality) / 10000; */\r\n    uint256 withdraw_value = tokens / phantom_prize;\r\n\r\n    payable(msg.sender).transfer(withdraw_value);\r\n\r\n  }\r\n\r\n\r\n\r\n\r\n}",
  "sourcePath": "C:\\Users\\sergi\\Desktop\\TFG_Blockchain\\TFG-INIS\\contratos\\contracts\\Casino.sol",
  "compiler": {
    "name": "solc",
    "version": "0.8.14+commit.80d49f37.Emscripten.clang"
  },
  "schemaVersion": "3.4.7",
  "updatedAt": "2022-06-22T17:53:02.763Z",
  "networkType": "ethereum",
  "devdoc": {
    "kind": "dev",
    "methods": {
      "owner()": {
        "details": "Returns the address of the current owner."
      },
      "renounceOwnership()": {
        "details": "Leaves the contract without owner. It will not be possible to call `onlyOwner` functions anymore. Can only be called by the current owner. NOTE: Renouncing ownership will leave the contract without an owner, thereby removing any functionality that is only available to the owner."
      },
      "transferOwnership(address)": {
        "details": "Transfers ownership of the contract to a new account (`newOwner`). Can only be called by the current owner."
      }
    },
    "version": 1
  },
  "userdoc": {
    "kind": "user",
    "methods": {},
    "version": 1
  }
}