{
  "contractName": "Casino",
  "abi": [
    {
      "inputs": [],
      "stateMutability": "nonpayable",
      "type": "constructor"
    },
    {
      "anonymous": false,
      "inputs": [
        {
          "indexed": true,
          "internalType": "address",
          "name": "previousOwner",
          "type": "address"
        },
        {
          "indexed": true,
          "internalType": "address",
          "name": "newOwner",
          "type": "address"
        }
      ],
      "name": "OwnershipTransferred",
      "type": "event"
    },
    {
      "inputs": [
        {
          "internalType": "address",
          "name": "",
          "type": "address"
        }
      ],
      "name": "address_Register",
      "outputs": [
        {
          "internalType": "uint256",
          "name": "",
          "type": "uint256"
        }
      ],
      "stateMutability": "view",
      "type": "function",
      "constant": true
    },
    {
      "inputs": [],
      "name": "owner",
      "outputs": [
        {
          "internalType": "address",
          "name": "",
          "type": "address"
        }
      ],
      "stateMutability": "view",
      "type": "function",
      "constant": true
    },
    {
      "inputs": [],
      "name": "renounceOwnership",
      "outputs": [],
      "stateMutability": "nonpayable",
      "type": "function"
    },
    {
      "inputs": [
        {
          "internalType": "address",
          "name": "newOwner",
          "type": "address"
        }
      ],
      "name": "transferOwnership",
      "outputs": [],
      "stateMutability": "nonpayable",
      "type": "function"
    },
    {
      "stateMutability": "payable",
      "type": "receive",
      "payable": true
    },
    {
      "inputs": [
        {
          "internalType": "uint256",
          "name": "tokens_Number",
          "type": "uint256"
        }
      ],
      "name": "buyTokens",
      "outputs": [
        {
          "internalType": "uint256",
          "name": "",
          "type": "uint256"
        }
      ],
      "stateMutability": "payable",
      "type": "function",
      "payable": true
    },
    {
      "inputs": [
        {
          "internalType": "uint256",
          "name": "tokens",
          "type": "uint256"
        }
      ],
      "name": "withdrawAlltokens",
      "outputs": [],
      "stateMutability": "payable",
      "type": "function",
      "payable": true
    }
  ],
  "bytecode": "0x608060405260c8600060146101000a81548161ffff021916908361ffff160217905550606460015534801561003357600080fd5b5061005061004561005560201b60201c565b61005d60201b60201c565b610121565b600033905090565b60008060009054906101000a900473ffffffffffffffffffffffffffffffffffffffff169050816000806101000a81548173ffffffffffffffffffffffffffffffffffffffff021916908373ffffffffffffffffffffffffffffffffffffffff1602179055508173ffffffffffffffffffffffffffffffffffffffff168173ffffffffffffffffffffffffffffffffffffffff167f8be0079c531659141344cd1fd0a4f28419497f9722a3daafe3b4186f6b6457e060405160405180910390a35050565b610a21806101306000396000f3fe6080604052600436106100595760003560e01c80631f64632e146100655780633610724e146100a2578063715018a6146100d25780638da5cb5b146100e9578063f2fde38b14610114578063f42d14781461013d57610060565b3661006057005b600080fd5b34801561007157600080fd5b5061008c60048036038101906100879190610615565b610159565b604051610099919061065b565b60405180910390f35b6100bc60048036038101906100b791906106a2565b610171565b6040516100c9919061065b565b60405180910390f35b3480156100de57600080fd5b506100e761025f565b005b3480156100f557600080fd5b506100fe6102e7565b60405161010b91906106de565b60405180910390f35b34801561012057600080fd5b5061013b60048036038101906101369190610615565b610310565b005b610157600480360381019061015291906106a2565b610407565b005b60026020528060005260406000206000915090505481565b600034600154836101829190610757565b11156101c3576040517f08c379a00000000000000000000000000000000000000000000000000000000081526004016101ba9061080b565b60405180910390fd5b6000600260003373ffffffffffffffffffffffffffffffffffffffff1673ffffffffffffffffffffffffffffffffffffffff1681526020019081526020016000205490508281610213919061082b565b600260003373ffffffffffffffffffffffffffffffffffffffff1673ffffffffffffffffffffffffffffffffffffffff1681526020019081526020016000208190555082915050919050565b6102676104e6565b73ffffffffffffffffffffffffffffffffffffffff166102856102e7565b73ffffffffffffffffffffffffffffffffffffffff16146102db576040517f08c379a00000000000000000000000000000000000000000000000000000000081526004016102d2906108cd565b60405180910390fd5b6102e560006104ee565b565b60008060009054906101000a900473ffffffffffffffffffffffffffffffffffffffff16905090565b6103186104e6565b73ffffffffffffffffffffffffffffffffffffffff166103366102e7565b73ffffffffffffffffffffffffffffffffffffffff161461038c576040517f08c379a0000000000000000000000000000000000000000000000000000000008152600401610383906108cd565b60405180910390fd5b600073ffffffffffffffffffffffffffffffffffffffff168173ffffffffffffffffffffffffffffffffffffffff16036103fb576040517f08c379a00000000000000000000000000000000000000000000000000000000081526004016103f29061095f565b60405180910390fd5b610404816104ee565b50565b6000600260003373ffffffffffffffffffffffffffffffffffffffff1673ffffffffffffffffffffffffffffffffffffffff1681526020019081526020016000205403610489576040517f08c379a0000000000000000000000000000000000000000000000000000000008152600401610480906109cb565b60405180910390fd5b6000600154826104999190610757565b90503373ffffffffffffffffffffffffffffffffffffffff166108fc829081150290604051600060405180830381858888f193505050501580156104e1573d6000803e3d6000fd5b505050565b600033905090565b60008060009054906101000a900473ffffffffffffffffffffffffffffffffffffffff169050816000806101000a81548173ffffffffffffffffffffffffffffffffffffffff021916908373ffffffffffffffffffffffffffffffffffffffff1602179055508173ffffffffffffffffffffffffffffffffffffffff168173ffffffffffffffffffffffffffffffffffffffff167f8be0079c531659141344cd1fd0a4f28419497f9722a3daafe3b4186f6b6457e060405160405180910390a35050565b600080fd5b600073ffffffffffffffffffffffffffffffffffffffff82169050919050565b60006105e2826105b7565b9050919050565b6105f2816105d7565b81146105fd57600080fd5b50565b60008135905061060f816105e9565b92915050565b60006020828403121561062b5761062a6105b2565b5b600061063984828501610600565b91505092915050565b6000819050919050565b61065581610642565b82525050565b6000602082019050610670600083018461064c565b92915050565b61067f81610642565b811461068a57600080fd5b50565b60008135905061069c81610676565b92915050565b6000602082840312156106b8576106b76105b2565b5b60006106c68482850161068d565b91505092915050565b6106d8816105d7565b82525050565b60006020820190506106f360008301846106cf565b92915050565b7f4e487b7100000000000000000000000000000000000000000000000000000000600052601260045260246000fd5b7f4e487b7100000000000000000000000000000000000000000000000000000000600052601160045260246000fd5b600061076282610642565b915061076d83610642565b92508261077d5761077c6106f9565b5b828204905092915050565b600082825260208201905092915050565b7f4572726f722c20796f75206e65656420746f20706179206d6f726520666f722060008201527f74686520746f6b656e7300000000000000000000000000000000000000000000602082015250565b60006107f5602a83610788565b915061080082610799565b604082019050919050565b60006020820190508181036000830152610824816107e8565b9050919050565b600061083682610642565b915061084183610642565b9250827fffffffffffffffffffffffffffffffffffffffffffffffffffffffffffffffff0382111561087657610875610728565b5b828201905092915050565b7f4f776e61626c653a2063616c6c6572206973206e6f7420746865206f776e6572600082015250565b60006108b7602083610788565b91506108c282610881565b602082019050919050565b600060208201905081810360008301526108e6816108aa565b9050919050565b7f4f776e61626c653a206e6577206f776e657220697320746865207a65726f206160008201527f6464726573730000000000000000000000000000000000000000000000000000602082015250565b6000610949602683610788565b9150610954826108ed565b604082019050919050565b600060208201905081810360008301526109788161093c565b9050919050565b7f4572726f722c20796f75206469646e27742062757920746f6b656e7300000000600082015250565b60006109b5601c83610788565b91506109c08261097f565b602082019050919050565b600060208201905081810360008301526109e4816109a8565b905091905056fea2646970667358221220051670b2fb165f840c5d5bb11806713f8d32c0a07f9e165eba3330c28488c33464736f6c634300080e0033",
  "immutableReferences": {},
  "source": "// SPDX-License-Identifier: MIT\r\n\r\n\r\n//0x97D8b61F854D013DB04Bc91633B0cFAd7E5666C1\r\npragma solidity >=0.4.22 <0.9.0;\r\nimport \"@openzeppelin/contracts/access/Ownable.sol\";\r\n\r\ncontract Casino is Ownable {\r\n  constructor (){\r\n    \r\n  }\r\n\r\n  uint16 royality = 200; //Porcentaje al hacer el withdraw\r\n  uint256 phantom_prize = 100;\r\n  //Acabar de hacer la comprovacion del phantom_prize \r\n\r\n  mapping(address => uint256) public address_Register;\r\n\r\n  receive() external payable {\r\n  }\r\n\r\n  function buyTokens (uint256 tokens_Number) public payable returns(uint256) {\r\n    //Comprovar el token number y precio del Phantom es correcto\r\n    require((tokens_Number / phantom_prize) <= msg.value, \"Error, you need to pay more for the tokens\");\r\n    uint256 current_tokens = address_Register[msg.sender];\r\n    address_Register[ msg.sender] = current_tokens + tokens_Number;\r\n    return tokens_Number;\r\n\r\n  }\r\n\r\n  function withdrawAlltokens (uint256 tokens) public payable {\r\n    require( address_Register[msg.sender] != 0 , \"Error, you didn't buy tokens\");\r\n    /* uint256 feeAmount = (tokens * royality) / 10000; */\r\n    uint256 withdraw_value = tokens / phantom_prize;\r\n\r\n    payable(msg.sender).transfer(withdraw_value);\r\n\r\n  }\r\n\r\n\r\n\r\n\r\n}",
  "sourcePath": "C:\\Users\\sergi\\OneDrive\\Desktop\\Tfg_Block\\TFG-INIS\\contratos\\contracts\\Casino.sol",
  "compiler": {
    "name": "solc",
    "version": "0.8.14+commit.80d49f37.Emscripten.clang"
  },
  "schemaVersion": "3.4.7",
  "updatedAt": "2022-07-04T16:53:50.260Z",
  "networkType": "ethereum",
  "devdoc": {
    "kind": "dev",
    "methods": {
      "owner()": {
        "details": "Returns the address of the current owner."
      },
      "renounceOwnership()": {
        "details": "Leaves the contract without owner. It will not be possible to call `onlyOwner` functions anymore. Can only be called by the current owner. NOTE: Renouncing ownership will leave the contract without an owner, thereby removing any functionality that is only available to the owner."
      },
      "transferOwnership(address)": {
        "details": "Transfers ownership of the contract to a new account (`newOwner`). Can only be called by the current owner."
      }
    },
    "version": 1
  },
  "userdoc": {
    "kind": "user",
    "methods": {},
    "version": 1
  }
}